:400000000040002011000000151C0000151C000080B500AF01F032FE80B500AF294B12221A6002F07FFD284B181C03F07DF8012002F088FD302002F055FC244B244A1A60E3
:40004000244B8022D2051A60234B234A126802210A431A60214B224A1A60224B00221A60214B214A126808218A431A60FA23DB00181C02F083FC1D4B181C02F0F7FC1C4B3E
:40008000882292011A601B4B1B4A1A601B4BF82252011A60174B1A4A1A601A4B802212061A60194B8022D2021A60184B41221A60174B40221A60074B8022D2051A60BD4604
:4000C00080BDC04630001040001BB70004010B40060000800C020B4078002E407C002E406A2D000064F02E406CF02E40DC050000040301400000014041FF008000030140DB
:4001000040FF008008010B4000010B40080101400401014080B582B000AF72B6444B00221A60FB1D00221A7023E0FB1D1A78131C5B009B185B003F4A9B183B603B681A7852
:40014000597809020A43997809040A43DB781B061343191C3B681A795B791B0213439BB2081C191C01F00EFEFB1D1A78FB1D01321A70FB1D1B78012BD7D92F4B2F4A1A6059
:400180002F4B992212041A602E4B992212041A602D4B992212041A602C4B992212041A602B4B992212041A602A4A2A4B1B78DBB202210B43DBB21370274A274B1B78DBB2E3
:4001C0003C218B43DBB214210B43DBB21370214A204B1B78DBB216210B43DBB213701F4B02221A601E4B1F4A1A601F4B02221A601E4B20221A601E4BC42292021A601D4BE3
:4002000020221A601C4B40221A601C4BC02252031A601B4BC0221A601A4BD82212041A60FFF7FAFE01F0BEFDBD4602B080BDC0466CF02E409C58010000000240990000EEDC
:400240000001024000500F4010500F4020500F4030500F4000700F4001700F4000000440080004403100D80018000440000104400801044018010440000204400802044068
:40028000000304400803044010B5064C2378002B07D1054B002B02D0044800E000BF0123237010BD78110020000000005855010008B5084B002B03D00748084900E000BF93
:4002C00007480368002B00D108BD064B002BFBD09847F9E700000000585501007C110020A80B00200000000080B590B000AFF860B9607A6002F0DEFE031CFB630023BB6354
:400300002323FB180A221A700023FB61BB68181C03F06AFB031CBB617B68181C03F064FB031C7B6103E002F0C5FE031CFB63FB6B002BF8D08BE0BB6B5A1CBA63FA68D31802
:40034000FA6BD2B21A70BB69BA6BD31A013B7B637B6BDB43DB0FDBB27A6BF9688A1812782321791809788A1A51424A41D2B21340DBB2002B27D07B6B01337B637A6BBB692E
:40038000D3183B6100233B630123FB6212E07B6BFA68D3181A783B6B591C3963191CBB685B181B789A4202D00023FB6206E07B6B01337B637A6B3B699A42E8DBFB6A002BE4
:4003C00001D0BB6B4EE07B69BA6BD31A013B7B637B6BDB43DB0FDBB27A6BF9688A1812782321791809788A1A51424A41D2B21340DBB2002B27D07B6B01337B637A6B7B697C
:40040000D3183B610023BB6201237B6212E07B6BFA68D3181A78BB6A591CB962191C7B685B181B789A4202D000237B6206E07B6B01337B637A6B3B699A42E8DB7B6A002BA6
:4004400001D0BB6B0EE002F035FE031CFB63FB6B002B00D06FE7FB69002B02D0C046BB6B00E05FE7181CBD4610B080BD80B582B000AF78607B68092B19D87B689A000E4B8B
:40048000D3181B689F46312312E0322310E033230EE034230CE035230AE0362308E0372306E0382304E0392302E0302300E02E23181CBD4602B080BD5C55010080B51B4F9C
:4004C000BD4400AF786039600823F9187A683B68081C111C1A1CFFF707FF031C144ABA1813600023134ABA18136012E0124B134ABA18D2180F4BFB181B68D3181B78181C06
:4005000002F07EF80B4BFB181B680133094ABA181360084BFB181A68054BFB181B689A42E4DBBD46054B9D4480BDC04668ECFFFF901300009413000070ECFFFF981300001A
:4005400080B584B000AF786039600023FB6009E0FB687A68D3181B78181C02F051F8FB680133FB60FA683B689A42F1DB0A2002F047F8BD4604B080BD80B588B000AFF860F7
:40058000B9607A603B600023FB610023BB6100237B617EE00023BB6100237B61FB690133FB6117E0FB69FA68D3181A78BB697968CB181B789A420AD1FB690133FB61BB69DC
:4005C0000133BB61BA693B689A4203DB08E001237B6105E0FB69FA68D3181B78222BE1D17B69002B11D002E0FB690133FB61FB69FA68D3181B782C2B03D0FA69BB689A4285
:40060000F2DBFB690133FB6143E0FB690333FB6100233B61FB69013BFA68D3181B786E2B1CD1FB69013BFB610DE03B695A1C3A611A1CBB6A9A18FB69591CF961191CFB68A5
:400640005B181B781370FB69FA68D3181B782C2B1DD0FA69BB689A42E7DB18E00DE03B695A1C3A611A1CBB6A9A18FB69591CF961191CFB685B181B781370FB69FA68D31899
:400680001B78222B03D0FA69BB689A42E7DB3B6905E0FA69BB689A4200DA7BE70023181CBD4608B080BDC04680B5B04FBD4402AF78603960AE4BFB180D221A70AD4BFB18C0
:4006C0000A221A70AC4BFB1822221A7001F07CFF02F012FC02F04CFCFA239B00181C02F0A1F9A64B181C02F005FDA34BFB181B78181C02F053FCA24B181C02F0FBFC9E4B39
:40070000FB181B78181C02F049FC2C2002F046FC994BFB181B78181C02F040FC994B181C02F0E8FC944BFB181B78181C02F036FC8F4BFB181B78181C02F030FC8D4BFB18B4
:400740001B78181C02F02AFC8F4A904B101C191CFFF7B4FE8E4B181C02F0CCFC844BFB181B78181C02F01AFC824BFB181B78181C02F014FC844A854B101C191CFFF79EFE2B
:40078000844B181C02F0B6FC7B4BFB181B78181C02F004FC804B181C02F0ACFC764BFB181B78181C02F0FAFB2C2002F0F7FB724BFB181B78181C02F0F1FB784B181C02F057
:4007C00099FC6D4BFB181B78181C02F0E7FB2C2002F0E4FB724B181C02F08CFC644BFB181B78181C02F0DAFB624BFB181B78181C02F0D4FB644A654B101C191CFFF75EFECD
:40080000684B181C02F076FC594BFB181B78181C02F0C4FB574BFB181B78181C02F0BEFB614A624B101C191CFFF748FE604B181C02F060FC4E4BFB181B78181C02F0AEFBE7
:400840004C4BFB181B78181C02F0A8FB594B181C02F050FC464BFB181B78181C02F09EFB444BFB181B78181C02F098FB524B181C02F040FC3E4BFB181B78181C02F08EFB9B
:400880003C4BFB181B78181C02F088FB384BFB181B78181C02F082FB364BFB181B78181C02F07CFB454A414B101C191CFFF706FE322002F0B7F8424BF9183C4A3B4B081C9B
:4008C000111C1A1CFFF710FD031C3E4ABA1813603C4BFB181B68013B3B4ABA18136012E03A4B3B4ABA18D218374BFB181B68D3181B787D2B00D10BE0334BFB181B68013B81
:40090000314ABA181360304BFB181B68002BE7DC2D4BFB181B68023B2B4ABA1813602A4BFB181B68013B2B4ABA18136006E0294BFB181B68013B274ABA181360234B244A34
:40094000BA18D218234BFB181B68D3181B787B2BEDD10023204ABA1813601E4BFB181B6801331C4ABA18136055E0C046A0D7FFFF4B2800004A280000492800008C5501003D
:4009800098550100A4550100B4550100B8550100C0550100CC550100DC550100E0550100F4550100F8550100085601000C56010014560100485601006456010078560100A9
:4009C000B414000044280000542800005CECFFFF58280000502800004C280000F24BFB181B685A1CF04979180A60F04AF04979188918F04ABA1812688A181178EE4AEC4856
:400A00008446BC446244D154EA4BFB181B680133E84ABA181360E74BFB181A68E74BFB181B689A42DADBE64BFB181B78181C01F0E7FD96235B00F818E24BFB181968E24A9A
:400A400090235B00FB1800930623FFF795FD031CA1229201BA18136090235B00FA18A1239B01FB181B68101C191CFFF769FD96235B00F818D34BFB181968D44AFC23FB185E
:400A800000930623FFF778FD031CA1229201BA181360FC23FA18A1239B01FB181B68101C191CFFF74DFDC64BFB181B78181C01F0A7FD96235B00F818C24BFB181968C44A3A
:400AC0008A235B00FB1800930623FFF755FD031CA1229201BA1813608A235B00FA18A1239B01FB181B68101C191CFFF729FDB44BFB181B78181C01F083FD96235B00F81822
:400B0000B04BFB181968B34AF023FB1800930623FFF732FD031CA1229201BA181360F023FA18A1239B01FB181B68101C191CFFF707FDA34BFB181B78181C01F061FD962322
:400B40005B00F8189F4BFB181968A34A84235B00FB1800930623FFF70FFD031CA1229201BA18136084235B00FA18A1239B01FB181B68101C191CFFF7E3FC914BFB181B7850
:400B8000181C01F03DFD96235B00F8188D4BFB181968924AE423FB1800930623FFF7ECFC031CA1229201BA181360E423FA18A1239B01FB181B68101C191CFFF7C1FC884B06
:400BC000181C02F097FA874BFB181B78181C02F0E5F9854B181C02F08DFA824BFB181B78181C02F0DBF92C2002F0D8F97D4BFB181B78181C02F0D2F97C4B181C02F07AFA09
:400C0000784BFB181B78181C02F0C8F92C2002F0C5F9774B181C02F06DFA764BFB181B78181C02F0BBF9664BFB181B78181C02F0B5F9714A714B101C191CFFF73FFC704BE9
:400C4000181C02F057FA6B4BFB181B78181C02F0A5F95B4BFB181B78181C02F09FF9694A694B101C191CFFF729FC684B181C02F041FA604BFB181B78181C02F08FF9504B42
:400C8000FB181B78181C02F089F9614B181C02F031FA584BFB181B78181C02F07FF9484BFB181B78181C02F079F95A4B181C02F021FA504BFB181B78181C02F06FF9404BF1
:400CC000FB181B78181C02F069F94A4BFB181B78181C02F063F93A4BFB181B78181C02F05DF94D4A484B101C191CFFF7E7FB322001F098FE494BF918434A434B081C111C15
:400D00001A1CFFF7F1FA031C2E4ABA1813602D4BFB181B68013B294ABA18136012E0234B234ABA18D218254BFB181B68D3181B787D2B00D10BE0214BFB181B68013B1F4AA6
:400D4000BA1813601D4BFB181B68002BE7DC1B4BFB181B68023B194ABA181360174BFB181B68013B134ABA18136006E0114BFB181B68013B0F4ABA1813600C4B0C4ABA185A
:400D8000D2180C4BFB181B68D3181B787B2BEDD10023054ABA181360064BFB181B680133044ABA18136058E04C2800005CECFFFF5828000050280000D4D8FFFF5428000005
:400DC0004A2800004428000080560100885601009056010098560100A0560100A8560100CC55010049280000DC550100E0550100F45501004B280000B4550100B8550100C3
:400E0000F8550100085601000C560100B0560100485601006456010078560100B4140000EF4BFB181B685A1CED4979180A60ED4AED4979188918ED4ABA1812688A181178E6
:400E4000EB4AE9488446BC446244D154E74BFB181B680133E54ABA181360E44BFB181A68E44BFB181B689A42DADBE34BFB181B78181C01F0C5FB96235B00F818DF4BFB18D3
:400E80001968DF4AD823FB1800930623FFF774FB031CA1229201BA181360D823FA18A1239B01FB181B68101C191CFFF749FB96235B00F818D14BFB181968D24AB423FB1827
:400EC00000930623FFF758FB031CA1229201BA181360B423FA18A1239B01FB181B68101C191CFFF72DFBC44BFB181B78181C01F087FB96235B00F818C04BFB181968C24AAA
:400F0000CC23FB1800930623FFF736FB031CA1229201BA181360CC23FA18A1239B01FB181B68101C191CFFF70BFBB34BFB181B78181C01F065FB96235B00F818AF4BFB1864
:400F40001968B24AA823FB1800930623FFF714FB031CA1229201BA181360A823FA18A1239B01FB181B68101C191CFFF7E9FAA24BFB181B78181C01F043FB96235B00F81874
:400F80009E4BFB181968A24AC023FB1800930623FFF7F2FA031CA1229201BA181360C023FA18A1239B01FB181B68101C191CFFF7C7FA914BFB181B78181C01F021FB9623FB
:400FC0005B00F8188D4BFB181968924A9C23FB1800930623FFF7D0FA031CA1229201BA1813609C23FA18A1239B01FB181B68101C191CFFF7A5FA884B181C02F07BF8874B3B
:40100000FB181B78181C01F0C9FF854B181C02F071F8824BFB181B78181C01F0BFFF2C2001F0BCFF7D4BFB181B78181C01F0B6FF7C4B181C02F05EF8784BFB181B78181C48
:4010400001F0ACFF2C2001F0A9FF774B181C02F051F8764BFB181B78181C01F09FFF664BFB181B78181C01F099FF714A714B101C191CFFF723FA704B181C02F03BF86B4BCB
:40108000FB181B78181C01F089FF5B4BFB181B78181C01F083FF694A694B101C191CFFF70DFA684B181C02F025F8604BFB181B78181C01F073FF504BFB181B78181C01F0E1
:4010C0006DFF614B181C02F015F8584BFB181B78181C01F063FF484BFB181B78181C01F05DFF5A4B181C02F005F8504BFB181B78181C01F053FF404BFB181B78181C01F045
:401100004DFF4A4BFB181B78181C01F047FF3A4BFB181B78181C01F041FF4D4A484B101C191CFFF7CBF9322001F07CFC494BF918434A434B081C111C1A1CFFF7D5F8031C04
:401140002E4ABA1813602D4BFB181B68013B294ABA18136012E0234B234ABA18D218254BFB181B68D3181B787D2B00D10BE0214BFB181B68013B1F4ABA1813601D4BFB18D8
:401180001B68002BE7DC1B4BFB181B68023B194ABA181360174BFB181B68013B134ABA18136006E0114BFB181B68013B0F4ABA1813600C4B0C4ABA18D2180C4BFB181B68FF
:4011C000D3181B787B2BEDD10023054ABA181360064BFB181B680133044ABA18136058E04C2800005CECFFFF5828000050280000D4D8FFFF542800004A28000044280000BA
:4012000080560100885601009056010098560100A0560100A8560100CC55010049280000DC550100E0550100F45501004B280000B4550100B8550100F855010008560100AF
:401240000C560100E4560100485601006456010078560100B4140000EF4BFB181B685A1CED4979180A60ED4AED4979188918ED4ABA1812688A181178EB4AE9488446BC44EB
:401280006244D154E74BFB181B680133E54ABA181360E44BFB181A68E44BFB181B689A42DADBE34BFB181B78181C01F0A9F996235B00F818DF4BFB181968DF4A9023FB186D
:4012C00000930623FFF758F9031CA1229201BA1813609023FA18A1239B01FB181B68101C191CFFF72DF996235B00F818D14BFB181968D24A6C23FB1800930623FFF73CF980
:40130000031CA1229201BA1813606C23FA18A1239B01FB181B68101C191CFFF711F9C44BFB181B78181C01F06BF996235B00F818C04BFB181968C24A8423FB180093062378
:40134000FFF71AF9031CA1229201BA1813608423FA18A1239B01FB181B68101C191CFFF7EFF8B34BFB181B78181C01F049F996235B00F818AF4BFB181968B24A6023FB186E
:4013800000930623FFF7F8F8031CA1229201BA1813606023FA18A1239B01FB181B68101C191CFFF7CDF8A24BFB181B78181C01F027F996235B00F8189E4BFB181968A24AC5
:4013C0007823FB1800930623FFF7D6F8031CA1229201BA1813607823FA18A1239B01FB181B68101C191CFFF7ABF8914BFB181B78181C01F005F996235B00F8188D4BFB18B4
:401400001968924A5423FB1800930623FFF7B4F8031CA1229201BA1813605423FA18A1239B01FB181B68101C191CFFF789F8884B181C01F05FFE874BFB181B78181C01F064
:40144000ADFD854B181C01F055FE824BFB181B78181C01F0A3FD2C2001F0A0FD7D4BFB181B78181C01F09AFD7C4B181C01F042FE784BFB181B78181C01F090FD2C2001F0BA
:401480008DFD774B181C01F035FE764BFB181B78181C01F083FD664BFB181B78181C01F07DFD714A714B101C191CFFF707F8704B181C01F01FFE6B4BFB181B78181C01F03B
:4014C0006DFD5B4BFB181B78181C01F067FD694A694B101C191CFEF7F1FF684B181C01F009FE604BFB181B78181C01F057FD504BFB181B78181C01F051FD614B181C01F0D2
:40150000F9FD584BFB181B78181C01F047FD484BFB181B78181C01F041FD5A4B181C01F0E9FD504BFB181B78181C01F037FD404BFB181B78181C01F031FD4A4BFB181B785E
:40154000181C01F02BFD3A4BFB181B78181C01F025FD4D4A484B101C191CFEF7AFFF322001F060FA494BF918434A434B081C111C1A1CFEF7B9FE031C2E4ABA1813602D4B9A
:40158000FB181B68013B294ABA18136012E0234B234ABA18D218254BFB181B68D3181B787D2B00D10BE0214BFB181B68013B1F4ABA1813601D4BFB181B68002BE7DC1B4BF2
:4015C000FB181B68023B194ABA181360174BFB181B68013B134ABA18136006E0114BFB181B68013B0F4ABA1813600C4B0C4ABA18D2180C4BFB181B68D3181B787B2BEDD1B0
:401600000023054ABA181360064BFB181B680133044ABA18136058E04C2800005CECFFFF5828000050280000D4D8FFFF542800004A280000442800008056010088560100A1
:401640009056010098560100A0560100A8560100CC55010049280000DC550100E0550100F45501004B280000B4550100B8550100F8550100085601000C560100185701004E
:40168000485601006456010078560100B4140000E54BFB181B685A1CE34979180A60E34AE34979188918E34ABA1812688A181178E14ADF488446BC446244D154DD4BFB1885
:4016C0001B680133DB4ABA181360DA4BFB181A68DA4BFB181B689A42DADBD94BFB181B78181C00F08DFF96235B00F818D54BFB181968D54A4823FB1800930623FEF73CFFE8
:40170000031CA1229201BA1813604823FA18A1239B01FB181B68101C191CFEF711FF96235B00F818C74BFB181968C84A2423FB1800930623FEF720FF031CA1229201BA18C9
:4017400013602423FA18A1239B01FB181B68101C191CFEF7F5FEBA4BFB181B78181C00F04FFF96235B00F818B64BFB181968B84A3C23FB1800930623FEF7FEFE031CA12285
:401780009201BA1813603C23FA18A1239B01FB181B68101C191CFEF7D3FEA94BFB181B78181C00F02DFF96235B00F818A54BFB181968A84A1823FB1800930623FEF7DCFE66
:4017C000031CA1229201BA1813601823FA18A1239B01FB181B68101C191CFEF7B1FE984BFB181B78181C00F00BFF96235B00F818944BFB181968984A3023FB180093062395
:40180000FEF7BAFE031CA1229201BA1813603023FA18A1239B01FB181B68101C191CFEF78FFE874BFB181B78181C00F0E9FE96235B00F818834BFB181968884A0C23FB18E6
:4018400000930623FEF798FE031CA1229201BA1813600C23FA18A1239B01FB181B68101C191CFEF76DFE7B68272B00D1BBE007D8022B22D0262B00D1C3E0012B08D01CE10A
:40188000422B31D04C2B3CD0282B00D1A6E014E1734B181C00F044FF002000F049FB031C1A1C704B1A806F4B1B88002B04D06E4B181C00F035FF05E104E13B681B88012BCB
:4018C00012D16A4B181C00F02BFF002000F030FB031C1A1C634B1A80624B1B88002B03D0634B181C00F01CFF624B00221A70002000F056FF012000F02DFF012000F076FF6E
:40190000E0E05D4B181C00F00BFF3B685B4ABA1813605A4BFB181B689B89102B4FD1574BFB181B685B6801331B781A1C03239A43131E16D1514BFB181B685B681A784D4B98
:401940001A704F4B181C00F0EBFE4C4BFB181B681A1D4C4B101C00211A1C00230EF0C0FE2DE0494B181C00F0DBFE484B304A9446BC44634412229A70404BFB181B689A892B
:40198000424B2B498C46BC4463441A803F4B284A9446BC4463440422DA703A4B0822B9181A785B781B021A4300231204120C1B0C1B041343181C0DF0EBFFC04682E0314BD5
:4019C0001A785B781B021A4300231204120C1B0C1B041343181C0EF06FF873E02C4B181C00F09EFE6EE02B4B181C00F099FE012000F0D6FE012000F0ADFE002000F0F6FECE
:401A000060E0254B1B78032B4AD1244B181C00F087FE012000F0C4FE002000F09BFE012000F0E4FE49E0C0464C2800005CECFFFF5828000050280000D4D8FFFF542800008C
:401A40004A2800004428000080560100885601009056010098560100A0560100A85601004C5701009C2200205C57010078570100945701009E220020B45701003C280000C4
:401A8000D0570100B0220020E4570100B0D7FFFFF857010008580100A822002028580100002000F07DFE012000F054FE012000F09DFE064B181C00F033FE054B181C00F07B
:401AC0002FFEC046BD46034B9D4480BD3C580100585801005828000080B500AF01F094F9021C8023DB00134007D0054B01221A608023DB00181C01F095F9BD4680BDC046F2
:401B00009811002080B500AF01F066F80E4B181C00F090FE0120012101F09CF80120012101F0C4F8094B0120191C01F025F9012001F0B0F980235B00181C01F0EDF801F079
:401B400021F8BD4680BDC046D91A0000FF7F000080B584B000AF00F037FD012000F020FE012000F0F7FD012000F040FE62B6214B181C00F047F9204B00221A60FFF7C2FF30
:401B800002F0BAFB1C4B1B68002B31D01A4B00221A601A4B1B781A1C0123134028D03B1D0E221A813B1D164A1A603B1D0F229A80144B391D1A785B781B021A430023120405
:401BC000120C1B0C1B041343181C0DF01FFF031C1A1C0D4B1A800C4B1B88002B04D00B4B181C01F0F7FE03E0094B181C01F0F2FEC6E7C046A9060000981100209E220020D5
:401C0000AC0B0020B02200209C220020645801008458010080B500AF01F02EFE031C1B680C2B00D1FEE7FEE780B584B000AF7860104B1A687B68D3181A1C0F4BD21A802334
:401C4000DB009A4209DC0B4B1B68FB60094B1A687B68D218074B1A6007E001F00DFE031C0C221A6001235B42FB60FB68181CBD4604B080BDD80C0020B822002080B586B06B
:401C800000AF224B7B61224B3B61204B7B6135E03B691B68FB603B695B68BB603B699B683B6000237B600CE0FB681A68BB681A60BB680433BB60FB680433FB607B68043391
:401CC0007B607A683B689A42EED13B69DB683B6000237B6008E0BB6800221A60BB680433BB607B6804337B607A683B689A42F2D13B6910333B617B69013B7B617B69002BA6
:401D0000C6D101F0BFFDFFF723FFFEE701000000B45C010080B582B000AF154B144A126801218A431A6000237B600FE07B68032B04D8104B7A689200D35800E00E4B0F4A33
:401D4000796889008B507B6801337B607B682F2BECD9FEF7DFF90A4B00221A60044B044A126801210A431A60BD4602B080BDC0460000104000000000151C000000000020D3
:401D8000C000002080B582B000AF786039607A683B68101C00211A1C01F0B2FDBD4602B080BDC04680B500AF054B03221A60054B03221A60044B00221A60BD4680BDC04629
:401DC0003000304030003140000E3F4080B500AF064B00221A70064B00221A70054B00221A7000F009F8BD4680BDC046B3220020AC220020B222002080B500AF00F0C8FB96
:401E0000BD4680BDB0B594B004AF78603E23FB1800221A802823FA183E4B111C1A1C1423081C111C1A1C01F062FD3B4B1B78002B04D1FFF7CBFF384B01221A707B68002B90
:401E40005CD0364B7A681A603E23FB181B88002B29D11023FB181C22BA185A601023FB182022BA181A601023FB1800221A812023FB181B221A802023FB181B225A80202359
:401E8000FB1804221A711C23FB1800221A703E23FC181023FA180E23FB18101C191C02F007FB031C23803E23FB181B88002B29D13E23FC181A481B49AE231A012823FD1888
:401EC0000523009300230193002302932B1C02F045FA031C23803E23FB181B88002B11D1114B01221A703E23FC18104B181C102112220EF0DDFB031C238003E03E23FB18F9
:401F000001221A803E23FB181B88181CBD4610B0B0BDC046A85801009C110020A022002061220000C8000020A8220020E458010090B585B000AF021CFB1D1A70FB1D1B788D
:401F4000022B04D90E23FB1801221A804BE0294B1B78042B42D1284B1B78DBB21A1C042313403BD1FB1D1B78002B0BD1234B1E221A82224B5B6820221A80204B5B6830220B
:401F80005A8010E0FB1D1B78012B0CD11B4B96221A821A4B5B68C822D2001A80174B5B688022D2015A80164BFA1D12781A700E23FC18124B181C0CF09FFB031C23800E230C
:401FC000FB181B88002B08D10B4B1B78DBB204221343DAB2084B1A7005E004E00E23FB180422FF321A800E23FB181B88181CBD4605B090BDA8220020B32200202C0D002076
:40200000B222002080B584B000AF78600A1CFB1C1A700023BB60BB68002B20D07B689A79BB681A700F23FB1800221A7012E00F23FB181B780133BA68D3180F22BA1812784D
:4020400079688A5C1A700F23FB181A780F23FB1801321A700F23FB181B78052BE7D9BD4604B080BD80B582B000AF78607B681B789AB27B6801331B789BB21B029BB2134313
:402080009BB2181CBD4602B080BDC04690B585B000AF78600F23FB1800221A707B689B890B22934237D17B681A1D7B680F217C18101C00211A1C40230EF012FB031C237040
:4020C0000F23FB181B78002B1DD17B685B68181CFFF7C8FF031C1A1C022313409BB2002B08D0104B1B68822251007A68081C111C984708E00B4B1B680622FF32111C7A682D
:40210000081C111C9847084B1B78DBB201229343DAB2054B1A700F23FB181B78181CBD4605B090BDA0220020B322002090B585B000AF78600F23FC187B68181CFFF7A6FFBC
:40214000031C2370144B1B78DBB21A1C012313401FD10F23FB181B78002B16D00823FB1812229A707B689A890823FB181A800823FB180F22BA181278DA707B680822BA185A
:402180001868111C0DF004FC03E07B6818680DF093FCBD4605B090BDB322002080B582B000AF7860BD4602B080BDC04680B500AF034B00225A70024B00221A70BD4680BD6C
:4021C000B022002080B582B000AF7860BD4602B080BDC04680B500AFBD4680BD80B584B000AF78600E23FB1800221A707B689B79002B1CD10F23FB1800221A7012E00F23DF
:40220000FB181B787A68D35C002B04D00E23FB1801221A700BE00F23FB181A780F23FB1801321A700F23FB181B78052BE7D90E23FB181B78181CBD4604B080BD80B582B005
:4022400000AF021CBB1D1A80BD4602B080BDC04680B582B000AF7860BD4602B080BDC04680B588B000AF021C3960FB1D1A70BC4B1B78DBB201221343DAB2B94B1A70FB1DFA
:402280001B78712B00D94FE19A00B64BD3181B689F461423FB1807221A701423FB1800225A701423FB18181C04F006F81423FB1807221A701423FB1801225A701423FB18D7
:4022C000181C03F0F9FF0023002B01D002F00CF8A54B1B68181CFFF781FF031E11D0A24B1B68181C02F00CF89F4B1B68181C0021FFF788FE9C4B1B68181C0121FFF782FE7D
:402300000DE09A4B181C01F0FBFF984B181C0021FFF778FE954B181C0121FFF773FE00200CF07EF81023FB183F221A701023FB1800225A701023FB18181C0CF08FF88C4BA2
:4023400004221A70F1E03B68181CFFF73BFFECE03B681A78874B1A70E7E03B68BB61BB691B78002B18D1BB695B78002B0BD1824B0022DA80804B00229A807F4B7F4A1A60CC
:40238000BB697D4A5A60764B1B78DBB201229343DAB2734B1A70C8E0C7E0714B1B78DBB21A1C2023134027D1754B1B78102B02D1734B0522DA70734B1A78714B101C191CDE
:4023C0000CF058F9031C1A1C0E23FB181A800E23FB181B88002B06D06B4B1B680E22BA183620111C98475E4B1B78DBB201221343DAB25B4B1A7098E097E03B68181CFFF71E
:4024000027FF92E03B68181CFFF722FF584B02221A708AE0564B04221A7086E0544B1B78022B40D04E4B1B78DBB21A1C0123134039D04B4B1B78DBB21A1C042313400BD085
:402440004B4B03221A70464B1B78DBB204229343DAB2434B1A7026E0414B1B78DBB21A1C082313400BD0424B04221A703C4B1B78DBB208229343DAB2394B1A7013E03C4B8D
:402480001B78032B0FD13A4B04221A703F4B1B78002B08D10120FFF74BFD031E03D1344B03221A7041E040E03B681B88181CFFF7C5FE3AE0334A3B68111C1A1C0223081C49
:4024C000111C1A1C01F013FA2A4B00221A70FFF781FE2AE0FFF76AFE27E03B685B88162B05D81E23FB183A6852881A8003E01E23FB1817221A803B681E22BA1811881A886E
:4025000000231204120C1B0C1B041343181C0DF049FA0AE03B68181CFFF708FE05E03B68181CFFF73BFE00E0C0460D4B1B78DBB21A1C112313400FD0094B1B78DBB20122FB
:402540009343DAB2064B1A700F4B1B68FA1D11783A68081C111C9847BD4608B080BDC046B3220020305A0100480D0020400D0020A8220020AC220020A0110020A80B0020F3
:40258000D00D0020B0220020A0220020B222002080B500AFBD4680BD80B500AF00F046F8BD4680BD80B500AF064B064A1268802109060A431A6000F019F800F01BF8BD4663
:4025C00080BDC0460000244080B500AF064B1B78002B04D1FFF7E0FF034B01221A70FFF7E1FFBD4680BDC046A811002080B500AFBD4680BD80B500AF00F078F8BD4680BDFF
:4026000080B582B000AF7860C046064B1B681F221340082BF9D0044B7A681A60BD4602B080BDC046080224404002244080B500AF1B4B1C4A1A601C4B00221A601B4B0122D5
:402640001A601B4B1B4A1A601B4B07221A601B4B00221A601A4B01221A601A4B154A1A60194B00221A60194B04221A60184B00221A60184B00221A60174B00221A60174BEE
:4026800000221A60164B00221A60164B00221A60144B1B689AB2144B1A80BD4680BDC046000024400C00000240002440480024400003244007000080040324401003244085
:4026C00044002440000224400402244050002440880E2440C80E2440480F2440080F2440C80F2440880F2440AA11002080B500AF074B074A126807490A40902109040A438D
:402700001A60054B054A12881A60BD4680BDC04600010240FFFF0FFF880F2440AA11002080B584B000AF78600023FB6009E07A68FB68D3181B78181CFFF762FFFB680133C5
:40274000FB607A68FB68D3181B78002BEFD1BD4604B080BD80B584B000AF021CFB1D1A700E4B1B68DAB20F23FB1840218A431A70FB1D1B789B01DBB240221340D9B20F23D9
:40278000FB180F22BA1812780A431A70034B0F22BA1812781A60BD4604B080BD0003044080B584B000AF021CFB1D1A700E4B1B68DAB20F23FB1840218A431A70FB1D1B782A
:4027C0009B01DBB240221340D9B20F23FB180F22BA1812780A431A70034B0F22BA1812781A60BD4604B080BD0002044080B584B000AF021CFB1D1A700D4B1B68DAB20F23C7
:40280000FB187F210A401A70FB1D1B78DB01D9B20F23FB180F22BA1812780A431A70044B0F22BA1812781A60BD4604B080BDC0460003044080B582B000AF786000F048F8A1
:402840007B68181C00F008F8032000F011F800F035F8BD4602B080BD80B582B000AF7860024B7A681A66BD4602B080BD0000002090B585B000AF021CFB1D1A700623FB600A
:402880000B23FC1800F059FC031C23700A4B0A4A1268C0218A43111CFA1D1078FA689040021C0A431A600B23FB181B78181C00F048FCBD4605B090BD08E400E080B500AF3A
:4028C000024B802252001A60BD4680BD00E100E080B500AF024B802252001A60BD4680BD80E100E090B58BB000AF78602723FC1800F023FC031C2370184B1A680C23FB18AF
:402900001A60174B1A680C23FB185A607B68033B144AD35C1A1C0C23FB189A60124B1A680C23FB18DA601C23FB18104A1A600C23FA181C23FB185A600D4B1C22BA181A606D
:402940000C4B0D4A1A600A4B1B682723FB181B78181C00F0F6FBBD460BB090BD08010B4000010B40F85B010030001040B6EA000008001040040010401700008080B584B087
:4029800000AF78600023FB60154B154A126801210A431A60134B144A1A60144B134A1268802109020A431A607B68002B12D01023FB600CE0012000F059F800F019F8031E23
:4029C00002D00023FB6005E07B68013B7B607B68002BEFD1FB68181CBD4604B080BDC04660F02E4078002E400220000010002E4080B582B000AF054B1B68012213407B60CB
:402A00007B68181CBD4602B080BDC0460C002E4080B582B000AF021CFB1D1A7001BEBD4602B080BD80B582B000AF786009E00C4B1B68181C00F078FB7B680A4A9446634486
:402A40007B607A6880231B029A42F0D8064B1B687A685343181C00F067FBBD4602B080BDE40D00200080FFFFDC0D002080B582B000AF021CBB1D1A80BB1D1B88044A1278E0
:402A80005343181C00F050FBBD4602B080BDC046E00D002080B500AF0E4B0E4A126801218A431A600B4B0B4A126802218A431A60094B094A126830218A4310210A431A60CE
:402AC000054B054A126807218A4301210A431A60BD4680BD00F02E4000FF2E4080B500AF0E4B0E4A126802218A431A600C4B0C4A126807218A4302210A431A60084B084AB0
:402B0000126830218A4320210A431A60034B034A126801210A431A60BD4680BD00F02E4000FF2E4080B500AFFFF7B4FF044B044A1268802109060A431A60BD4680BDC0468B
:402B400000F02E4080B584B000AF78600C4B1B6801221340FB607B68002B02D0012B03D005E0FFF797FF06E0FFF7B8FF03E00020FFF74EFFC046FB68181CBD4604B080BDA2
:402B800000F02E4090B583B000AFFC1D00F0D5FA031C2370074B074A1268C02109020A431A60FB1D1B78181C00F0CBFABD4603B090BDC04600010B4080B500AF054B1A6897
:402BC000C0231B02134001D0012300E00023181CBD4680BD00010B4090B583B000AFFC1D00F0ABFA031C23700C4B0C4A12680C490A408021C9010A431A60084B074A12682D
:402C000007490A40802109020A431A60FB1D1B78181C00F096FABD4603B090BD00010B40FF3FFFFF80B582B000AF78607B68022B02D90020FFF7ECFE054B1B687A68D2003D
:402C40000132D34001221340181CBD4602B080BD10020B4080B584B000AF786039607B68022B02D90020FFF7D3FE7B68181CFFF7D9FF031E15D10C4B1B687A68D200111C13
:402C800003228A40D2431340FB603B68032213407A68D2009340FA681343FB60024BFA681A60BD4604B080BD0C020B4080B584B000AF786039607B68002B02D07B68012BBF
:402CC00001D1012300E00023002B02D10020FFF79FFE7B68181CFFF7A5FF031E16D10D4B1B687A68D2000232111C01228A40D2431340FB607B68DB0002331A1C3B68934032
:402D0000FA681343FB60034BFA681A60BD4604B080BDC0460C020B4080B582B000AF7860144B144A11687A680A431A607B680122134005D0C0460020FFF774FF031EFAD08E
:402D40007A6880235B00134005D0C0460120FFF769FF031EFAD07A6880235B02134005D0C0460220FFF75EFF031EFAD0BD4602B080BDC04610020B4080B584B000AF786026
:402D800039607B68002B02D07B68012B01D1012300E00023002B02D10020FFF739FE174B1B689B0F9B0701D1C92300E05D23181CFFF75CFE124B1B68FB607B681B011A1C04
:402DC000104B9340DA43FB681340FB600C4B7A681201111C3A688A40111CFA680A431A60064B1B689B0F9B0701D1432300E01F23181CFFF73BFEBD4604B080BD0C020B4012
:402E000008020B40FFFF000080B500AF034B1B68034A1340181CBD4680BDC04610020B400404040090B585B000AF78600B23FC1800F083F9031C2370FFF7BEFE031E04D0FF
:402E40000123FB60FFF7C8FE01E00023FB607B680D4A13407B600D4B0C4A12680C4911407A680A431A60094B1B68FB68012B01D1FFF788FE0B23FB181B78181C00F061F9D3
:402E8000BD4605B090BDC0460404040010020B40FBFBFBFF80B582B000AF7860084B084A11687A68074802400A431A60C046044B1B68044A1340FAD1BD4602B080BDC0462C
:402EC00010020B400808080080B500AF00F07CF8BD4680BD80B500AF064B064A1268802109060A431A6000F019F800F01BF8BD4680BDC0460000254080B500AF064B1B78E8
:402F0000002B04D1FFF7E0FF034B01221A70FFF7E1FFBD4680BDC046AC11002080B500AFBD4680BD80B500AF00F0AEF8BD4680BD80B582B000AF00237B60044B1B687B6029
:402F40007B68181CBD4602B080BDC0464003254080B582B000AF054B1B681F2213407B607B68181CBD4602B080BDC0460803254080B500AF074B074A1268802149020A4389
:402F80001A60044B034A126803490A401A60BD4680BDC04604032540FFFFFEFF80B582B000AF7860C046064B1B681F221340082BF9D0044B7A681A60BD4602B080BDC046C9
:402FC000080225404002254080B500AF1B4B1C4A1A601C4B00221A601B4B01221A601B4B1B4A1A601B4B07221A601B4B00221A601A4B01221A601A4B154A1A60194B002275
:403000001A60194B04221A60184B00221A60184B00221A60174B00221A60174B00221A60164B00221A60164B00221A60144B1B689AB2144B1A80BD4680BDC046000025404C
:403040000B00000240002540480025400003254007000080040325401003254044002540000225400402254050002540880E2540C80E2540480F2540080F2540C80F254044
:40308000880F2540AE11002080B500AF064B064A1268F0218A4390210A431A60034B044A12881A60BD4680BD00000240880F2540AE11002080B582B000AF00237B60FFF7C9
:4030C00047FF031E03D0FFF733FF031C7B60084B1A68D8239B00134005D000237B60044BD82292001A607B68181CBD4602B080BDC00F254080B584B000AF78600023FB60E3
:4031000009E07A68FB68D3181B78181CFFF746FFFB680133FB607A68FB68D3181B78002BEFD1BD4604B080BD0230800803D00138FDD1C046C046C0467047EFF3108072B6E9
:40314000704780F31088704780B582B000AF78600A1CBB1C1A80BB1C1A887B681A60BD4602B080BD80B582B000AF78600A1CBB1C1A80BB1C1A887B681A60BD4602B080BD3C
:4031800080B584B000AF494B1B78DBB21B02484A1278D2B21343FB60464B1B78DBB21B02454A1278D2B21343BB60BB68434A934207D1FB68072B04D1414BBB600423FB6009
:4031C00009E0BA68D4231B019A4204D1FB68042B01D13B4BBB603B4BBA681A603A4BFA681A603A4B1B78DBB21B02394A1278D2B21343FB60FA6880239B019A4202D0FB68C2
:40320000002B01D1334BFB60334BFA681A60334B1B78DBB21B02324A1278D2B21343FB60FB68304A934206D0FB682F4A934202D0FB68052B01D12D4BFB602D4BFA681A60D1
:403240002C4B1B681B097B602B4B1B68AA2B29D17B68012B26D9214B1B78DBB20E2B21D1264B1B78DBB29BB21B0299B2244B1B78DBB29AB2BB1C0A431A80224BBA1C12880C
:403280001A60214B1B78DBB29BB21B0299B21F4B1B78DBB29AB23B1C0A431A801C4B3A1C12881A60BD4604B080BDC046D9F0FF0FD8F0FF0FDFF0FF0FDEF0FF0F580B0000AB
:4032C000580D00006C002E4074002E40DBF0FF0FDAF0FF0F0220000078002E40DDF0FF0FDCF0FF0F0F0F000005050000050F000080002E40EC0F00F0E00F00F06DF2FF0FDE
:403300006CF2FF0F84002E406FF2FF0F6EF2FF0F94002E4080B582B000AF021CBB1D1A80BB1D1B88181CFFF7A1FBBD4602B080BD80B582B000AF78607B68181CFFF772FB0F
:40334000BD4602B080BDC04680B500AF00F0DEF8BD4680BD80B500AF00F0E2F8BD4680BD80B500AF00F0DCF8044B181C00F09CF8032000F0A5F8BD4680BDC046693500003A
:4033800080B500AF024B181C00F07CF8BD4680BD6935000080B500AF0223FF33181CBD4680BDC04680B582B000AF78602B23181CBD4602B080BDC04680B582B000AF78605B
:4033C0002B23181CBD4602B080BDC04680B582B000AF78602B23181CBD4602B080BDC04680B582B000AF78602B23181CBD4602B080BDC04680B582B000AF78602B23181C13
:40340000BD4602B080BDC04680B582B000AF78602B23181CBD4602B080BDC04680B582B000AF78602B23181CBD4602B080BDC04680B582B000AF78602B23181CBD4602B09F
:4034400080BDC04680B500AF2B23181CBD4680BD80B582B000AF021CFB1D1A702B23181CBD4602B080BDC04680B582B000AF786039602B23181CBD4602B080BD80B500AF34
:40348000BD4680BD80B582B000AF786000F048F87B68181C00F008F8032000F011F800F035F8BD4602B080BD80B582B000AF7860024B7A681A67BD4602B080BD00000020CC
:4034C00090B585B000AF021CFB1D1A700623FB600B23FC18FFF731FE031C23700A4B0A4A1268C0218A43111CFA1D1078FA689040021C0A431A600B23FB181B78181CFFF794
:4035000020FEBD4605B090BD0CE400E080B500AF024B802252011A60BD4680BD00E100E080B500AF024B802252011A60BD4680BD80E100E090B583B000AFFC1DFFF7FDFDA6
:40354000031C2370074B074A126804218A431A6030BFFB1D1B78181CFFF7F3FDBD4603B090BDC04610ED00E080B500AF11F0E0FFBD4680BD002243088B4274D303098B4218
:403580005FD3030A8B4244D3030B8B4228D3030C8B420DD3FF22090212BA030C8B4202D31212090265D0030B8B4219D300E0090AC30B8B4201D3CB03C01A5241830B8B428A
:4035C00001D38B03C01A5241430B8B4201D34B03C01A5241030B8B4201D30B03C01A5241C30A8B4201D3CB02C01A5241830A8B4201D38B02C01A5241430A8B4201D34B021D
:40360000C01A5241030A8B4201D30B02C01A5241CDD2C3098B4201D3CB01C01A524183098B4201D38B01C01A524143098B4201D34B01C01A524103098B4201D30B01C01A51
:403640005241C3088B4201D3CB00C01A524183088B4201D38B00C01A524143088B4201D34B00C01A5241411A00D20146524110467047FFE701B5002000F0FCF802BDC046D2
:403680000029F7D003B5FFF775FF0EBC4243891A1847C04603460B437FD4002243088B4274D303098B425FD3030A8B4244D3030B8B4228D3030C8B420DD3FF22090212BAB0
:4036C000030C8B4202D31212090265D0030B8B4219D300E0090AC30B8B4201D3CB03C01A5241830B8B4201D38B03C01A5241430B8B4201D34B03C01A5241030B8B4201D3CE
:403700000B03C01A5241C30A8B4201D3CB02C01A5241830A8B4201D38B02C01A5241430A8B4201D34B02C01A5241030A8B4201D30B02C01A5241CDD2C3098B4201D3CB0196
:40374000C01A524183098B4201D38B01C01A524143098B4201D34B01C01A524103098B4201D30B01C01A5241C3088B4201D3CB00C01A524183088B4201D38B00C01A524122
:4037800043088B4201D34B00C01A5241411A00D201465241104670475DE0CA0F00D04942031000D34042534000229C4603098B422DD3030A8B4212D3FC22890112BA030AC8
:4037C0008B420CD3890192118B4208D3890192118B4204D389013AD0921100E08909C3098B4201D3CB01C01A524183098B4201D38B01C01A524143098B4201D34B01C01AEF
:40380000524103098B4201D30B01C01A5241C3088B4201D3CB00C01A524183088B4201D38B00C01A5241D9D243088B4201D34B00C01A5241411A00D20146634652415B109D
:40384000104601D34042002B00D54942704763465B1000D3404201B5002000F00BF802BD0029F8D003B5FFF715FF0EBC4243891A1847C0467047C046014B18687047C04619
:40388000701100200E4B70B500251E1C0D4CE41AA410A54204D0AB00F35898470135F8E712F0F6F9084B00251E1C084CE41AA410A54204D0AB00F35898470135F8E770BD5F
:4038C0009C5C01009C5C01009C5C0100A45C010030B50024944208D0035D651C0C5DA34201D0181B02E02C1CF4E7002030BD002310B5934203D0CC5CC4540133F9E710BD2F
:40390000031C8218934202D019700133FAE7704770B5051C0E1C002804D08369002B01D100F02EFAAC68A3891B0702D52369002B19D1281C211C00F0B7F8002813D001203F
:40394000404245E03178002B1BDAA269934211DA221C281C00F050F8013042424241D0B20028ECD10136A3683278013BA360002AE8D10CE023681970236819780A2903D182
:40398000E6E723681970236801332360EAE7002B17DAA269934208DB0A2322681370236819780A2911D1281C01E0281C0A21221C00F022F8013042424241D0B2002806D035
:4039C000BDE70A23226813702368013323600A2070BD000008B5034B011C1868FFF798FF08BDC046701100200023C25C0133002AFBD1581E7047000070B5051C0E1C141C77
:403A0000002804D08369002B01D100F0B9F9234B9C4201D16C6808E0214B9C4201D1AC6803E0204B9C4200D1EC68A369A360A3891B070AD52369002B07D023682269F6B21C
:403A4000981A636998420FDB08E0281C211C00F02BF80028F1D0012040421DE0281C211C00F020F90028F6D1A3680130013BA36023685A1C22601E706369984205D0A38953
:403A8000301CDB0708D50A2E06D1281C211C00F009F90028DFD1301C70BDC046305C0100505C0100705C0100354B70B51D68061C0C1C002D05D0AB69002B02D1281C00F05F
:403AC0005FF9304B9C4201D16C6808E02E4B9C4201D1AC6803E02D4B9C4200D1EC68A3899AB2110723D4D10607D409220120326037321343A381404240E0530713D5616B42
:403B0000002908D0231C4433994202D0301C00F021FA002363632422A3899343A38100236360236923600822A3891343A3812369002B0BD1A023A2899B001340802292000D
:403B4000934203D0301C211C00F0ACF90123A289134005D00023A36063695B42A36103E0910700D46369A36000202369834205D1130603D540231A43A281013870BDC046D0
:403B800070110020305C0100505C0100705C0100F7B58A89051C0C1C13075ED44B68002B02DC0B6C002B1ADDE76A002F17D000232E682B6080235B011A4001D0626D15E01B
:403BC000281C216A0123B847021C431C0ED12B68002B0BD01D2B01D0162B02D12E6000205EE04021A3890B43A38159E0A3895B0706D56368D21A636B002B01D0236CD21A28
:403C00000023281C216AE76AB847A389421C06D12A68002A03D01D2A01D0162A19D10022626022692260DB0405D5431C02D12B68002B00D16065616B2E600029CFD0231C7F
:403C40004433994202D0281C00F084F90020606326E040221343A38122E00F69002FBED00B680F60DB1B01930023920700D14B69A360019B002BB2DD281C216A3A1C019BAC
:403C8000A66AB047002806DC40220120A38940421343A38104E0019B3F181B1A0193E8E7FEBD000038B50B69051C0C1C002B01D100201CE0002804D08369002B01D100F086
:403CC0005FF80B4B9C4201D16C6808E0094B9C4201D1AC6803E0084B9C4200D1EC680C22A35E002BE4D0281C211CFFF751FF38BD305C0100505C0100705C010008B5024981
:403D000000F0AEF808BDC046A53C0000002310B5041C03604360836081814366C281036143618361191C08225C30FFF7E9FD054B24626362044BA362044BE362044B236357
:403D400010BDC046B5400000DD400000154100004141000070B568254B1E5D430E1C291C743100F03DF9041E08D000212A1C016046600C30A0606832FFF7C2FD201C70BD35
:403D8000836913B5002B28D18364C3640365134B134A1B6882620193984201D101238361041C00F01FF86060201C00F01BF8A060201C00F017F80421E06000226068FFF7A5
:403DC000A5FFA06809210122FFF7A0FFE06812210222FFF79BFF0123A36113BD2C5C0100FD3C0000F8B51D4B061C1D68AB69002B02D1281CFFF7C4FF4835AC686B68013BE1
:403E000005D40C22A75E002F10D06834F7E72B68002B06D1301C0421FFF79CFF2860002801D02D68E9E70C23336016E00123201C5B42E3810233A38167662760A7606760DC
:403E400027616761A7615C30391C0822FFF758FD201C6763A763A764E764F8BD2C5C0100F7B5041C071C002601914834002C16D06368A5680093009B013B00930DD4AB89D1
:403E8000012B08D90E22AB5E013304D0381C291C019B984706436835EDE72468E6E7301CFEBD0000F0B58B8991B09B0706D50B1C47330B600B6101234B6145E00C1C0E2349
:403EC000C95E061C002904DA8023A5891D4010D10CE001AA00F060F90028F5DBF023029D1B021D40194BED186B425D418027FF0001E000254027301C391C00F071F8002876
:403F00000CD1A3899A051FD402221343A381231C4733236023610123636115E080220C4BB362A38920601343A38120616761002D0AD00E23E15E301C00F040F9002803D047
:403F40000122A3891343A38111B0F0BD00E0FFFFFD3C000030B500293ED004390B68002B00DAC9181D4A1368141C002B02D14B60116031E099420DD208680A189A4203D108
:403F80001368C3180B6053684B60216024E08A4203D8131C5A68002AF9D11D685C198C420BD10968691858181960904214D110685268091819605A600EE08C4202D90C2347
:403FC000036009E008680C18944203D114685268001908604A60596030BDC04698220020032370B5CC1C9C430834051C0C2C01D20C2405E0002C03DA0C2300202B6042E0BC
:404000008C42F9D3204A1368101C191C002913D00A68121B0DD40B2A02D90A608B181FE08B4202D15A6802601BE04A685A600B1C17E00B1C4968E9E7144E3368002B03D10B
:40404000281C00F025F83060281C211C00F020F8031C421CD0D00322C61C964386420AD11C60181C07210B301A1D8843821A0AD05142995007E0311A281C00F009F8431C69
:40408000BAD0331CECE770BD982200209422002038B50023064C051C081C2360FDF7C4FD431C03D12368002B00D02B6038BDC046B422002038B50C1C0E25495F00F0A4F8E7
:4040C000002803DB636D1B18636503E0A289024B1340A38138BDC046FFEFFFFFF8B51E1C8B89051C0C1C171CDB0505D50E23C95E0022022300F074F8A289054B281C1340F8
:40410000A3813A1C0E23E15E331C00F01FF8F8BDFFEFFFFF38B50C1C0E25495F00F060F8A389421C03D1054A1340A38104E0802252011343A381606538BDC046FFEFFFFF43
:4041400008B50E23C95E00F015F808BD38B5051C0020074C2060081C111C1A1C00F090F8431C03D12368002B00D02B6038BDC046B422002038B50023064C051C081C236009
:4041800000F056F8431C03D12368002B00D02B6038BDC046B422002038B50023064C051C081C111C236000F04BF8431C03D12368002B00D02B6038BDB422002038B50023C3
:4041C000064C051C081C236000F042F8431C03D12368002B00D02B6038BDC046B422002038B5051C0020074C2060081C111C1A1C00F036F8431C03D12368002B00D02B605C
:4042000038BDC046B422002038B5051C0020074C2060081C111C1A1C00F02AF8431C03D12368002B00D02B6038BDC046B422002058220120014B40421A607047B42200202E
:4042400058220120014B40421A607047B42200205822024B00201A607047C046B422002058220120014B40421A607047B422002058220120014B40421A607047B42200207A
:4042800058220120014B40421A607047B4220020134A1088810703D08107890F401A001D11791030484381B25088820703D08207920F801A001D800040180A4940300989BD
:4042C00080B2CA0701D0503080B2890706D504495422091F09785143081880B270470000F20D0020BC11002010B501F005FF10BD10B501F007FF10BD10B500F055FA10BDD7
:4043000010B50749044609780220002907D1204601F048FF002802D120460AF091F910BD900F002070B504460120002C12D02368002B0FD0616800290CD0074D062228893D
:40434000208118462968FFF7D2FA6968606809780170002070BD0000BC110020FFB585B0002768460E9D07734F481C460078002802D0082009B0F0BD10990F9801900095D4
:40438000029105A807C800F001F90028F2D16946264603AB84460873002C19D0002115E08A00B75A082F09D990198078002805D0083FB7521878401C187005E0002914D0D8
:4043C0000027B75290198770491CC9B2A942E7D360460028CED10F98002809D0109901F03BFA002804D00120C4E701208446EFE701F088FE2D48002141608160059901606D
:4044000021888180022D07D3A1798171A17AC171A1890181218A418100211EE0481C19E082008B00A75AE65ABE46BE4211D26F463E80B4461E190296B678BE7001967646BB
:40444000E6521719029EBB78B3706646A652019EBE70401CA842E3D3491CA942DED3134822460C3000906846037B0799069800F015F90028B8D168460B4C007B60700B4825
:404480000C3001F06FFE0028AED1084907480C3107F076F90028A7D107F090F90028A3D10121217066E70000EC0D0020B0110020F8B5054633480E460078002802D0022463
:4044C0002046F8BD002E5BD000242F49002D16D02A89D0070DD02868002808D003881B3BE12B04D24088FB2801D81B2801D2012409E0900707D56868002804D1F7E70020B9
:40450000088108604860002CDAD11F482F8907811C481B21801D018041800421017119490020891C0870F80705D016480622801D2968FFF7DCF91449B80703D56A6811483D
:40454000127882700F480D46801D0860001F486001F04EFE0B48801D01F03CFE28890DF0B3F928890DF01AFB03461033FFF790FE1F21C018890140180249308088809FE741
:4045800001249DE7EC0D0020BC110020FFB58446384F1C460020BB883F78054602460646002F11D100290ED0029999420BD36146002908D0002C06D00A99002906D02E4BBB
:4045C0000B99994202D2012004B0F0BD002144E0AB001F19BF78002F3BD0E35A002B38D07B43591889B22B0000F04AF8050410161C253100A7782388BC46FF27233BEB3703
:40460000BB4222D26346032B1FD322E0A388002B1FD0302B19D31CE02389002B19D0282B13D316E0A289002A13D01346134F233BBB420AD20DE0268A002A0AD033460F4FA5
:40464000233BBB4201D2964203D901200EE0002001E000280AD16D1CEDB2099B9D42B7D31C2463435B1802998B42ACD89642AAD8AAE70000EC0D002079020000BAFF000093
:4046800030B47446641E2578641CAB4200D21D46635D5B00E31830BC18470000FFB583B0002469460C801F4606468C80002806D00598002803D004983043800701D0012415
:4046C00066E0002FFBD03449049809888842F6D3FEF756FEFEF73EFE00F012FC002855D100F07AFD002851D12C49084601F0E8F805042D0C4AD12A4804990660818000213E
:40470000C18007810C98007AC00704D0684601F012FD040007D10C98007A800703D501A801F012FD0446BF1DFEB2002C20D13146059800F05DF804001AD10DF03DFA0400D4
:4047400016D16A461088928808368518144AF1B29088D288AEB29319984207D3401B801A80B201F09DFB050007D000E0FF25012400F05EFA002D04D008E0F8B200F01CF94D
:40478000F6E700F081FA07490120087000F0CAFB204607B0F0BD0000F00D0020DD480000C8110020F80D002010B503480078012801D101F017FA10BDF80D002070B5084BFA
:4047C0000446DA889E8800205518B54206D81D68AA182260DA885118D98070BD032070BDC81100200148008970470000C8110020F0B587B007460D46002089000090069154
:404800006846FFF7DBFF844600285DD1304800990160002117E02E4B88001A680629115406D22C4C0419667882185670628805E0C419203CA67A8218567022891B68C01800
:40484000491C4280C9B2A942E5D300242DE0601CC2B2059025E01E4FA30039689600581840887118039604904E88B04217D938466F46FE80B6464F786E4677710297049FFF
:404880004F800168039F5E18767879184E700168764659184E800068029F18184770521CD2B2AA42D7D30598C4B2AC42CFD36046002809D168460699FFF780FF8446002890
:4048C00002D1054900980860604607B0F0BD0000FC0D0020C85C0100000E00207047000010B5002809D005494A68002A05D0011F08788000105801F081FA10BDFC0D0020AB
:4049000010B50446FFF76EFFC0B2801DA0420CD307484068002808D0A100405801F0E0F9002801D00470001D10BD002010BD0000FC0D0020F8B516460D460446FFF752FFE1
:40494000C0B2801DA04203D20020C0430090F8BDB2B2E9B2684601F0E9F90099481C03D0024AA000526811500098F8BDFC0D0020F8B50746FFF736FF801DC6B20A4900208F
:4049800005460C680DE06178002907D06188B94202D32078FFF7B4FF002804D1241D6D1CEDB2B542EFD3F8BDFC0D002010B5002801D0FFF795FF10BD70B50646094800257F
:4049C00004680BE06178002905D062882078121D0023FFF7AFFF241D6D1CEDB2B542F1D370BD0000FC0D0020FFB581B00A9F16000C4620D000F0F2F8054604281BD0002F46
:404A00000CD03846FFF7B4FF20492A0151184860002810D03A460499FEF769FF1B4928010E504618778101980570200406D47D20C000444304E0FF2005B0F0BD6404640CDE
:404A400000F0BAF80746042807D000F04FFAA0420BD800F04BFA201A03E0204600F0AAFA0020F06035720020E6E700F03FFA009000F0B6FA00980121001B009000F0ECF864
:404A800002493A0151180098C860E6E7D4110020F8B5060116483418217A042903D0E068002802D017E00020F8BD00F01FFA054600F096FA00F0A0F804280CD001010C48B4
:404AC0000F18F8680021451900F0C6F80020F860284600F06FFA6068054D002801D0FFF765FF042020720020A8516081E060DAE7D4110020FEB500266A463046012325490F
:404B0000050169180D7A042D02D0C96800291BD000211154401CC0B20428F0D300246846005D002830D01B48210108184189476805680291002101604160042241810272E8
:404B4000C160002E02D015E01354E3E700F054F804280ED001010F4808180190C6680021304600F079F801980021C160304600F021FA0126002D07D038460299A847002FBA
:404B800002D03846FFF712FF641CE4B2042CC6D3FEBD0000D41100200EB5002005216A460090118150810348694600680DF069FE0EBD0000040E0020074A0020010189187C
:404BC0000B7A042B02D0C968002903D0401CC0B20428F3D370470000D41100200549002002015218127A042A03D0401CC0B20428F6D37047D411002030B50A4B04200A4CEB
:404C000000210A011219157A042D06D0D268002A03D09A4201D808461346491CC9B20429EFD330BDFFFF0000D41100207047000030B50020074C05460423020111190B720A
:404C4000A5504D60401C4D81C0B2CD600428F4D330BD0000D411002030B5094C00231A011219157A042D04D0D568002906D02D18D5605B1CDBB2042BF1D330BD2D1AF7E7EE
:404C8000D4110020002070471CB5002469460C70142001902346054A05480DF0F7FD04480068401C00D1FF2420461CBD054D0000040E00203EB5124A0146FF200023012479
:404CC000126800290DD0012914D0042908D104206946009308814B8110460DF0D2FD80B23EBD6846009304814381694610460DF0C3FDF4E768460093048143816946EBE7E4
:404D0000040E002070B545890468416800890300FFF7B6FC08280509091E22282628002005F0F0FB1EE0022908D0C8B22A4621460BF036FF2046FFF739FE13E002202A466E
:404D400021460BF02DFF2946204600F00DF809E000200DF095FA05E02046FFF7CBFE01E0FEF78CFB002070BD014B0022DB681847080E002070B5448905680089022803D067
:404D8000032809D0FF2070BD2246094C0023A46829460120A04708E0FFF7AAFA241DA2B200232946022006F09EFB002070BD0000080E00207047000002480021416001801F
:404DC00041807047080E002070B50C46002186B016460391012802D0022859D116E003A9012006F0D5FB01281BD1039D324621462846FEF77CFD0095287801900220694668
:404E000008814E816846FFF7B5FF41E0214D002B686809D0049004A9022006F0B9FB01281DD0022006B070BD002812D0298840182146FEF75CFD28880024801980B2288028
:404E40006988091D884206D12C801348FFF792FF03E00320E6E788421AD96C6018E004986860E278A378110219430B4A698000231060E3565360032313815181A1788170FD
:404E8000E178C1706178417021780170042028800020C7E7080E0020141200203EB515460C46022803D004280CD000203EBD0091019002206946088107484A8100680DF003
:404EC000E0FC07E00BF06CFE044B0022DB6829462046984701203EBD040E0020080E0020014AD16090607047080E0020034801688068081A0A2148430009704720120020BF
:404F000010B5FEF72DFA482204490548FEF7EFFC03490120C870002010BD0000E45C01002416002010B5FEF70FFA10BD70B5134C2368002B08D0207B1149C20705D0400802
:404F4000400020738868A08070BD88680B4AA18880B29268814203D90A4D691A091802E0814202D2411A5118A160A080A0689842EAD30DF0A3FC00F013F870BD20120020DA
:404F8000C0102E40FFFF000010B508461946FFF7A7FF10BD704710B5FFF780FF10BD000003480021016041608160C1607047000020120020024610B5FF20002A0CD0FFF77B
:404FC000EFFF064C0321207B0843207310010A21FEF756FB2060002010BD00002012002000B504480A21806848430209FFF7D8FF104600BD201200200248007B8007C00F9C
:40500000704700002012002010B54B490868002802DA4A4B01221A70022290430860484800694549C00B4031096A0246C907C90F0A4259D0012000F097FA3F480E216C306A
:40504000FEF790F83E4820218430FEF78BF83C4814219C30FEF786F83948FF21C131A430FEF780F83648FF212F31B030FEF77AF833483449BC30FEF775F831483249AC3099
:40508000FEF770F830492E48491CB430FEF76AF82B482E49B830FEF765F829482C49CC30FEF760F826482B490830FEF75BF824482949A830FEF756F8214828498830FEF7CF
:4050C00051F81F4826498C30FEF74CF81C481921C9029030FEF746F8FEF752F8FEF75AF9C0B2022812D01FE000290BD0002101420AD0114801216030FEF734F80120FEF7B8
:4051000017F997E70121F2E7FF2010BD15491648FEF728F814481549001DFEF723F8124800210830FEF71EF854200449C043891C0870002010BD000000F02E40180E002012
:4051400000002E40320300002F3F00003102000010520000EC160000FA12000031D000003AE300009956000080012E40F80F000070B50646581C80B245086D00002408E09B
:40518000304600F0C1F81055000A1119A41C4870A4B2AC42F4D3D80705D0D0182038D15CC47FD454C17770BD30B50A4C002100195B1E07E0541864782502545C2C430480DC
:4051C000891C89B29942F5DB994201D1515C018030BD000000102E4010B5FF2000F0C4F90F49FF2048700E481021801D41800121417001700A490020C91C4870FFF704FFEC
:4052000004000AD100F010F907210648FDF79CFF044807211830FDF797FF204610BD0000180E0020CC112E4070B5002405465B1E0AE0284600F068F8010A161971702D1D6D
:405240001055A41CADB2A4B29C42F2DB9C4203D1284600F059F8105570BD000070B500210A4D5B1E0AE0541864782602545C344346193480001D891C80B289B29942F2DB35
:40528000994202D1515C4019018070BD00102E40F0B50599091FCFB200217E1E0BE0541864782502545C2C43164D45192C80001D891C80B289B2B142F1DBFC0712D01C7818
:4052C000515C24020F4A0C4381180C809C785D78001D210280B2294384182180001D80B2D9780CE059781A7809021143054A84182180001DD9789B78090280B2194380187E
:405300000180F0BD00102E40014940180088704700102E4010B50B490020487000F084F8002000F047F9002000F034F907210648FDF70AFF044807211830FDF705FF002031
:4053400010BD00001B0E0020CC112E4010B50B46062812D006DC01280CD0032801D1FFF7D9FF10BD0A28FCD00B28FAD105480078107010BDFFF730FF10BD1146184600F082
:4053800035F910BD1E0E0020F8B5244DAC6A0127A007234E002816DA307806280ED1286A384328621F480069F903084381B21D481030FDF7D7FE042000F0D6F817480221B2
:4053C0002830FDF7C1FEE00718D000F01DFF01280FD1002000F06AFF062000F0C5F81049FF20C91E48707078002802D1686B384368630A4801212830FDF7A6FEE0050BD536
:405400003078042802D1052000F0AEF80348FF2101312830FDF798FEF8BD000040F02E401B0E002000002E4010B503212348FDF799FE0120FDF76EFF20483038406A204C3A
:4054400080076178800F890001431C480C38FDF789FE6078002808D0401E022181401820FEF7FEF9C000083800E0B82081B21548FDF778FE1348032109021438FDF772FE23
:4054800010481149B830FDF76DFE612189010F48FDF768FE0D480321001FFDF763FE0C490C48FDF75FFE0B480B496038FDF75AFE084801218838FDF755FE10BD70F02E40B0
:4054C0001E0E0020D8102E4090890000041E2E40FF0F000058122E40209000000849087806280BD148780749002803D1486B400840004863C86A01221043C8627047000075
:405500001B0E002040F02E4001480078704700001B0E002000B50300FFF7B2F8080D050D0B070507090D012000BD032000BD042000BD022000BDFF2000BD0000074A91686C
:40554000D26889B2064B92B2994204D105498A4201D1012100E000210170704780002E4033D000003FE3000010B50446FDF7F2FE072C01D9FF2C01D102480470FDF7E4FE96
:4055800010BD00001B0E00200149487070470000180E002010B5064A012805D01921C9021046FDF7DFFD10BD1D21C902F8E7000090002E4010B50A4A141D012808D0094948
:4055C0001046FDF7CFFD08492046FDF7CBFD10BD04491046891CFDF7C5FD0349491DF3E788002E4031D000003AE3000070B50C460546FDF7CFFEC0B202280E49287804D0CD
:40560000FF2810D04C280CD810E0FF2809D10A4AD0680004800F032801D0087807E09069000A553803E00878207070BD4F382070087070BD1A0E002000002E40F0B50122AE
:40564000002834D0002932D00424420600D00524792342065B06D21800D0641C034600221EE00C2516466E43124D00277519AF72104F002ABB51696007D0661EB24209D188
:405680000D4E86197606760E05E05E06760E8027BE1B00E080269B198919521C2E81D2B2A242DED303480549006B002288611046F0BD0000AC14002079020000240E0020D2
:4056C00018B50020694608700A48006900280ED0132149014018047E684604704F21C900054800F059F8A04201D0012018BD002018BD0000240E00203012002007490020D2
:405700000C2242435218927A012A05D0401CC0B20628F5D30020704701207047AC140020F8B50E000446154609D0194F19497868A04202D94018A04201D38D4201D9012075
:40574000F8BD31462046FEF7C3F800281ED02A4631462046FEF7CBF8E8B200210C224A43D21913895568EE18A6420BD90126641B1B1B9672834209DA1469C01A044AC0B29D
:4057800020329676491CC9B20629E7D30020F8BDAC14002079020000034610B50020024604E09C5C2018521CC0B292B28A42F8D310BD000070B500F05FF8084C064A2169E6
:4057C00007480D46FEF793F805492846FFF736FFFFF776FF207070BD79020000240E002030120020002070470020054A002902D0012902D002E0906000E0D0600020704753
:40580000240E002070B5084C154608460549E26889182A46FEF76BF8E0684019E06028B270BD000030120020240E00203EB50A226946FFF7E7FF044606480A2200686946D2
:40584000FEF746F8002802D00020C0433EBD20463EBD0000280E0020002802D0044A914201D2FF20704703494A6108610020704779020000240E0020024800218160C160F1
:4058800070470000240E002070B5074C15460548A26880182A46FFF743FFA0684019A06028B270BD30120020240E002010B503490A220968FFF7E8FF10BD0000280E0020AB
:4058C00010B50F4A002313600E4A13600E4B18600E4801600E49012008600E490860000290600E490C4808600D4914300860FF381538506000F0BCF800F0CAF9002010BD83
:40590000580E0020400E00206C0E0020700E00205C0E00204C0E0020F4150020500E0020640E0020014610B50020002910D0094B1A689C685118A14209D2586819608018F7
:405940008A0704D08A07920F891A091D196010BD002010BD400E0020F8B50024164E671E321F3D463168136806E01422624310328A58521C1BD0641C9C42F6D36A1C14D0B5
:405980002C461422544322460C3288500C214843FFF7C8FF3168002808510AD031680020103408517068401C70602846F8BD2546E4E73846F8BD0000500E0020F3B500268F
:4059C000F64381B000281BDB1E490968884217D80299002914D01B4F142204463F1D54432546396810354859401C09D0FDF7B2FC38682F1F4159C359994203DBFDF7A4FC4F
:405A00003046FEBD214608310091465801590C20704308180C220299FDF769FF0948761C001D0068C159B14200D100260549009A091D865008684159491C4151FDF784FC23
:405A40000020FEBD4C0E0020002803DB07490968884202D90020C043704704491422091D0968504310300858704700004C0E0020F0B500200D4A451E0346171F50600FE070
:405A800014260146714314680E1DA3510C461668083433511668083435511468401C635039688842ECD30020F0BD0000500E0020F3B50026F64381B0002841DB23490968ED
:405AC00088423DD8029900293AD0204F142204463F1D54432546396810354859401C2FD0FDF738FC3868415900292BD0211D009146580C21005971430F46C1190C220298A6
:405B0000FDF7F5FE11480021001D0068761C00590C34C0190160416081600C48001D00680159B14200D100260849009A091D865008684159491E4151FDF706FC0020FEBDC0
:405B40003046FEBDFDF700FCFAE700004C0E0020FEB504460D4600201E49089E0860471E009001900290002C11D0486885420ED2002A0CD0002E0AD0642E08D808460C303E
:405B800001681C2068430C18207A002801D03846FEBD0120226020721846FFF7DDFE6060401C13D06681A6810A4827610C3067610179A94200D205710021684601810A4608
:405BC0002846029B00F040F82846FEBD00202072DDE70000580E002038B50124009400F039F838BDFEB50027164EFF433D4600240EE01C20316860430818017A002906D06A
:405C00004068FFF721FF002801D0254603E0641C3079A042EDDA681C12D01C2130684D434419FDF797FB69466068FFF741FF0546FDF78AFB002DD9D1216868468847D5E7D5
:405C4000FEBD0000640E002038B50024009400F001F838BD1FB500220C49541E0A60002811DB496888420ED808491C220C31096850430818406801A9FFF7A0FE401C02D0B4
:405C8000002004B010BD2046FBE70000580E0020F0B50021114A4D1E174611710C3F0B46BD6016E008461C2460431668041D355114680646235014680836A3551468361D49
:405CC000A353044616680A34335318301468491C255078688142E5D30020F0BD640E002038B500210091002811DB0F49097888420DDA0D4D04010C3529680859002807D0FC
:405D0000201D0818694600F06FF9002801D0002038BDFDF71FFB28680F34015D491E0155FDF712FB009838BD740E0020F7B582B0002502986E1E06602E48D21C0240174633
:405D40002D4A2C4610460C380178106805E02301C358002B0FD0641CE4B28C42F7D3711C28D03401211D40180191039900F02AF900281FD101E02646F1E71F4801682046CF
:405D80000C300F521C480399026820460E30115419480399026820460F3011540398784300F0A0F8144900280968085102D00024009011E001251AE00F4801680198081825
:405DC000009900F02CF9002801D0012502E00098C0190090641CE4B203988442ECD3002D05D10298066004480179491C0171284605B0F0BDFCFF0000800E0020F8B50D46A4
:405E000000216A468C461180002839DB23490978884235DA214B04010C3319680A59002A2ED020460C300B5A801C0E5C184670438018954224D3854222D2002006E00746DE
:405E40005F43BF18AF4206D0401CC0B2B042F6D36046002814D0114E271DC8190C366A46294600F006F900280AD168460088012808D030682946C01900F0D1F8002803D005
:405E80000120F8BD0020F8BDFDF764FA30680F34015D491C0155FDF757FAF3E7740E0020F8B50F46002400F031F8002817D10C4900220B460C334A600EE021011D680E4647
:405EC0006A501D680C36AA53B61C1D680F31AA551D68641C6A54E4B2BC42EED31A71F8BD740E002000280BD0C01C074A81085068890053884118994203D8936851601818D4
:405F00007047002070470000740E0020F8B5064600200F4D009029700C0121466846FEF74DFC00280CD129460C3100980860301B001F84B221466846FEF740FC002801D0A3
:405F4000FF20F8BD6C800098A8600020F8BD0000740E0020F8B5002827DB19490978884223DA174C05010C342168485900281CD028460C30085A009028460E300E5C401CD4
:405F80000E5420682F1DC01900F064F800280CD12068002445590EE0094829460C300068C01900F03CF8002801D00120F8BD00982D18641CE4B2B442EED30020F8BD00009A
:405FC000740E002030B50D4604000BD0A800FFF789FF6060002805D000202570C0436080002030BD012030BD70B50D46040005D0002D03D00220205E002801DA012070BD10
:40600000FDF7A8F90221615E60688900405828606088401E6080FDF797F9002070BD70B50D46040007D0002D05D002212078615E401E814201DB012070BDFDF78BF9608807
:40604000401C00B26080616880000D50FDF77CF9002070BD10B5040009D0227800216068FDF74EFC0020C0436080002010BD012010BDF0B500231D46002802D00224045FE7
:406080000AE00120F0BD46689F00F6598E4201D1012503E05B1CDBB29C42F4DA15700020F0BD00000148007870470000880E00207CB505460024FEF71BF9A87969460870C0
:4060C00000A8062229460130FDF711FC0021684604F0DEFC0C2806D0072806D01F2806D0122806D006E0022404E0042402E0272400E0012420467CBD014801214172704798
:406100002C17002010B500F05FF9FFF7FDF9FFF701FA10BD70B504460025FEF7E9F8002C06D0A079012803D8214602F07BFC00E00125284670BD01460120002902D0502078
:40614000088000207047000001460120002905D0034854220078504308800020704700008A0E002010B502460D49FE204870032410460CF0A9FE002810D10CF04DFE0028A6
:406180000CD105F061FA002808D100F013FB002804D104F023FF002800D10024204610BD880E002070B50025044600280ED0A07901280BD8FEF79CF8A0790028204602D0D9
:4061C00002F0D6FF03E002F0ABFF00E00125284670BD0000014610B50120002904D006220248FDF784FB002010BD0000940E002001460120002903D0087802490870002033
:40620000704700008A0E00200148007A704700002C17002038B504460120002C20D0617801291DD800290BD0FF25E535FEF760F80C4828180088C0B22070072803D00EE009
:40624000FF25CD35F2E70020694608706846FFF775F969460878012801D108202070002038BD000000102E40014A002192681047880E002008B500226B461A7026280CD09A
:40628000094A342852680BD0352805D1900703D50021352005F0B4FA08BD19462620F9E7D007F9D03420F5E7880E002001490872704700002C170020F8B504460120002CED
:4062C00026D06178012902D92278092A20D8002905D0FF25E5352078092803D004E0FF25CD35F8E708202070FEF702F82078114F114E08280DD00020FFF75CF970780128BD
:40630000207810D00D4969180880FE2070700020F8BD0120FFF74EF90720B8810549203188800120F2E7B8810248217820308180EBE70000C0112E40880E002000102E40A2
:4063400070B50E46050001D0002400E00C4C002C11D0E28A500609D5D107C90F022002F09BFFE08A40218843E08204E0D107C90F012002F091FF3146284602F079FC70BDBF
:406380008C160020F8B50546002004460D4E009013E022466946284600F0D6FF0098002801D00CF073FDA878214602F099FAA878214602F087FA641CE4B2308AA042E8D81C
:4063C000F8BD00005817002038B51E4CFFF79CF8042813D0052811D0062812D003282AD007280AD100206946087002460120FEF7ADFFFFF789F80128FBD138BD00F077FB08
:4064000038BD02F0C3FA00F072FB02F03FFB8007800F0228F4D10C4841880029F0D05B21095D0029ECD101210170A07D0140022002F032FF38BD02F0ADFA0120FFF794F8F5
:4064400038BD00008C160020AE0E0020F8B50646002402F08FFF0546304602F0A5FF03460A480021068A0DE001228A401046174628401F40002803D0002F01D1224394B24E
:40648000491CC9B28E42EFD82046F8BD581700201CB50020694648706846FFF7BBFE01AA69460A20FEF752FF6946042008561CBD70B50D4601F028FB04000BD02079002806
:4064C00008D0FDF715FFE178A0782A4602F056FC002070BD022070BD0148007870470000641600204030C07E002800D00120704700B500F001F800BD902148430749084A32
:4065000040186030417F491CC9B24177D289914201D300214177C8B2704700006C1600205817002013B501F0EFFA04000BD001F08CFE002807D0214601AA0A310620FEF77B
:4065400005FF00201CBD02201CBD000010B50C4601F0DAFA00280AD001F077FE002806D0224604490A20FEF7F1FE002010BD022010BD00004D160020F3B581B00746014652
:406580000026029802F0EEFE0446002F01D0002500E0154D002D21D0284601F0EBFA032C04D13946029802F039FF06463846029902F088F9032C06D0002C10D0012138465A
:4065C00001F0DEFB03E03146384603F025F9284602F06CF80221284602F082F8FEBD3846029902F06FF9FEBD8C16002010B5044600F066FA002804D103F0D8FD002801D05F
:406600000C2010BD2078611C02F0BAFCFF2801D01F2010BD02F000FDFF280AD02178621C02F0DEF8044821780068026B601C904710BD072010BD0000D40E002010B503F049
:40664000B5FD002801D00C2010BD02F07BFC03480068C06A8047002010BD0000D40E002070B50D46044610210CF050FB1021601806460CF04BFB334610221946204603F0A6
:40668000C3FD102130460CF041FB02202870204604F0DAFB70BD0000F8B504464078217802028006870FE0781143A67809050002090D0643084601F027FA00210546F2B214
:4066C000002812D0002C10D0022F0ED0032F0CD0002A0AD00279092A07D0002A05D0134A5A23527E1B5C9A4207D82889002104F0E0FA20460CF0CAFBFF21002914D10C48BA
:40670000224600682946436930469847C0B2FF280AD128464030817EF2B2491C8176FF232146284600F0E3F8F8BD000024160020F00E00200020704710B5044603F036FDCD
:40674000002801D00C2010BD2078611C02F018FCFF2808D002F050FB044821780068426B601C904710BD1F2010BD0000D40E002010B500F06BF904F031FC002010BD10B5BC
:40678000044600786178E2780843A17811430843217908436179084305D003F0F9FC002803D00C2010BD122010BD204602F0E0FC002010BD10B5FCF7EDFD02F0FDFD04482C
:4067C00003F060FD02F022FB012000F003F810BD34160020F1B586B003A8009005A8019028489F22817A114081726846FDF79AFD002845D169460989C90705D022480699CC
:406800000068C2686846904769460989890706D5002835D11D480068816A0698884700282ED11B4E0025757075737571F575357675767575B570F570B5713746F57301203A
:40684000D03738731F20F880FF2130467972A0300176457600F0D0FA00242046069901F09FFC002803D1641C2406240EF5D0FD720749BD72B573C0310D704D704D600D72B3
:4068800007B0F0BD24160020F00E0020D40E00206C16002070B505460E46084602F06AFD0446304602F080FD0121A9400A46224001400A4301D0012070BD002070BD10B542
:4068C0000446084602F070FD0121A140014201D0012010BD002010BD10B5FEF715FE032804D102F057F80120FEF73EFE10BDFEB51C4616460F46054601F0D8FEA878FFF794
:40690000F7FD02460190334639460094284600F00DF8002808D1A8780199FFF711FDFF2C02D138460CF0B2FAFEBD0000FFB585B005460E980C46FF2810D02B49C000096825
:406940000A5840180179C0795278814201D9012601E09006860F6846038108E06078A1788006860FE0780002014368460181284601F076FC070007D021462846079A00F007
:4069800077FC384609B0F0BD304600F025FD04AE0346039002AA29460096204600F0B1FB3C20405D002818D0284601F059FC012813D0684600890096C0B20190A878231DBE
:4069C000FF22079902F008F968460089039BC2B2A878079902F048FCD3E7684600890021C0B20091E9E70000EC0E0020F8B5002600253046FFF72AFD07001DD0902011491C
:406A0000704340186030447F12E0601CFCF738FECCB23846E040C007C00F07D02146304601F048FF21463046FFF7A6FD6D1CEDB20548018AA942E8D8761C3606360ED7D0E9
:406A4000F8BD00006C1600205817002010B502F0DDF90020FFF7BEFE0CF0AEFA002010BDF8B5002400F0B2F80123012800D10124104F00203E4620360425082203E00028DB
:406A800001D0002100E031460979002907D001290BD002290BD0114681402143CCB2401C0006000EEBD07C70F8BD1C43F7E72C43F5E700006C16002010B5FFF7D1FF10BDB8
:406AC00010B5044604F0DCFB002802D1601C00F001F810BD1CB500240094062269460194FCF7F6FE002800D1122420461CBD10B5FCF723FB0446FEF707FD012809D0FEF735
:406B000003FD022805D0FCF715FD2046FCF719FBEEE72046FCF715FB10BD10B50B4681791943817103D08078114602F06BFB10BD10B582798A43827102D1807802F076FB86
:406B400010BD000030B50C4C0220A28A0B4B9978002901D0022906D11D785B78EB18282B01D9032002E0032900D101205105490DC0020143A18230BDC0112E40A40E0020CC
:406B800000B500F029F8002807D0012805D0032801D0042801D0002000BD012000BD014600B50020C90701D000F010F800BD014600B50020C90701D000F008F800BD000082
:406BC00001480068704700009C0E002001480088000A704720102E400448008B410501D5042070474007800F7047000000102E4010B501F011FF044601F04EFF014620465F
:406C000001F032FF10BD000001484068704700009C0E002038B50446000610D5FFF7DCFF01280CD1684601F0C5FE6846007800F023FB012001F0A2FD0220FFF73DFF6007F8
:406C400008D507480179012904D1002101712620FFF710FB0348006801692046884738BDA80E0020D40E002070B505460C49007800240870FFF7AAFF012803D1FFF7B8FF54
:406C8000022803D3284602F0DFF907E0284600F0EBF8040002D1034801210170204670BDA40E00202C17002070B50446FFF78EFF002801D00C2070BDA27B01211F48002AE3
:406CC000827801D00A4301E05208520082706279012A14D0C17849084900C170184D2868016820468847207901280CD06188208803F00EF82080207904280FD015E0C278E1
:406D00000A43C270EAE72868C168E01D8847E01D02F01AFA0B48808C208006E02868C168E01D8847E01D02F00FFA074920798870204602F097F9002070BD00006C16002061
:406D4000D40E002024160020A40E002008B50178FFF73CFF814201D10C2008BD002914D0072069460870FFF70BFF012807D10121684600F0D9F8012801D0092008BDFFF72D
:406D8000E1FE02F0A3F9012011E0FFF7F9FE012806D1684601F00EFE6846007800F0A0FA02F08AF9FFF712FF0028FBD10220FFF783FE002008BD000070B505460C490078E1
:406DC00000244870FFF702FF012803D1FFF710FF022803D3284602F0F5F907E0284600F05DF8040002D1034801214170204670BDA40E00202C17002038B568460BF0DCFFA8
:406E0000002801D01F2038BD01210098C90201804180002505714571857107214173857302F020F9009C202200212046FCF768FD25702A460021601CFCF762FD204602F02F
:406E400003F9204602F0BEF900980CF01FF8062200210448FCF754FD02480C388560002038BD0000A80E0020F8B504460025684600950BF0A1FF002801D007250AE0064EC8
:406E8000009830602278611C401CFCF730FD3168207808702846F8BD9C0E0020F8B504460025684600950BF087FF002801D007250AE0064E009870602278611C401CFCF770
:406EC00016FD7168207808702846F8BD9C0E00200346084800B5834209D8184600F014FE002804D00089984201D1012000BD002000BD0000FF0E0000074A9179491C89060D
:406F0000890E917138220A4092014907090E114308430249084070476C160020FF0E0000C006C00E70470000F8B507460E4600240D4803E0002C01D0002500E0054629799E
:406F4000002905D0641C2406240EF3D00020F8BD0021204601F024F92E712046FFF7CCFF28813C700120F8BD8C16002010B503F07FF90222002100F003F801F0F3FE10BD48
:406F800010B5094B40074907000F090F185A595A40185043C0086421FCF772FB002800D1012080B210BD00002C5D0100F7B53D20405C88B015460C46002802D0287804284A
:406FC00002D200200BB0F0BD6946087200262046FFF788FA012800D00126204603A938300191009023460327A17E34333246206A03F062F902A8089900900B4601912046BF
:407000003A4603A9243003F0DFF802466846007A2870204601F0B0F81046D3E7FFB587B00C4605461078694608723D20005D1746002826D000262046FFF754FA012800D0B8
:407040000126204603A93830019100902346A17E34333246206A03F02FF902A80090291D019120462B1D03A924300A9A03F0ACF802006846007A388002D1204601F07CF8C6
:4070800010460BB0F0BDF0B505463C20405C89B016460C4600280CD0307869460873002806D000272046FFF71DFA012803D003E01F2009B0F0BD012703200890204604A95B
:4070C0003830019100902346E17E34333A46E06903F0F2F86846007B03A928180290009120462B46019504A92430089A03F0A0F802466846007B3070204601F047F8104661
:40710000D7E7FFB505463C20405C89B016460C46002810D0084601F0A3F801280BD0308869468883002809D000272046FFF7DAF9012805D005E000200DB0F0BD0220FBE793
:407140000127204603A93830019100902346E17E34333A46E06903F0AFF8291D2B1D07A8129A6D4607C5204603A924300C9A03F05FF802466846808B3080204601F006F8F5
:407180001046D9E770B50D460446FFF7ABF901280AD0E87AA97A00020143A07801F0DEFC012808D0002070BD00222421204602F001FD242070BD28214C200155204600F0CF
:4071C000B1FB282070BD0000002801D0002000E003484030C07F012800D00020704700008C1600200146002049070ED50021084B03E0002901D0002200E01A461279022AE5
:4072000004D0491C0906090EF3D07047012070478C1600200146002049070ED50021084B03E0002901D0002200E01A461279022A04D0491C0906090EF3D070470120704726
